:020000040800F2
:10000000F87D0220BD010008691C0008C318000823
:10001000651C00088B0A0008B51F000800000000DE
:10002000000000000000000000000000E51E0008C5
:10003000C90E000800000000951C0008E71E00081B
:10004000D7010008D7010008D7010008D701000830
:10005000D7010008D7010008CB0E0008D70100081F
:10006000D7010008D7010008D7010008D701000810
:10007000D7010008D7010008D7010008D701000800
:10008000D7010008D7010008D7010008D7010008F0
:10009000D7010008D7010008D7010008D7010008E0
:1000A000D7010008D7010008D7010008D7010008D0
:1000B000D7010008D7010008D7010008D7010008C0
:1000C000D7010008D7010008D7010008D7010008B0
:1000D000D7010008D7010008D7010008D7010008A0
:1000E000CD0E0008D7010008D7010008D70100088D
:1000F000D7010008D7010008D7010008D701000880
:10010000D7010008D7010008D7010008D70100086F
:10011000D7010008D7010008811F0008D701000897
:10012000D7010008D7010008D7010008D70100084F
:10013000D7010008D7010008D7010008D70100083F
:10014000D7010008D7010008D7010008D70100082F
:1001500000000000D7010008D7010008D7010008FF
:10016000D7010008D70100080000000000000000CF
:100170000000000000000000550E0008D701000834
:10018000D701000800000000D7010008D7010008CF
:10019000000000000000000000000000000000005F
:1001A000D7010008D7010008DFF80CD000F030FCC0
:1001B00000480047214A0008F87D02200648804791
:1001C00006480047FEE7FEE7FEE7FEE7FEE7FEE73C
:1001D000FEE7FEE7FEE7FEE7F11E0008A9010008C2
:1001E00040EA01039B0703D009E008C9121F08C0B9
:1001F000042AFAD203E011F8013B00F8013B521E39
:10020000F9D27047D2B201E000F8012B491EFBD2AF
:1002100070470022F6E710B513460A460446194611
:10022000FFF7F0FF204610BDF0B480EA0102D40FC2
:100230004200B2EB410F02D20246084611464A0084
:1002400042D0C30DDDB2C1F3C752AD1A202D35DA4D
:10025000C1F3160141F4000204B15242C5F1200677
:1002600002FA06F12A411044B3EBD05F23D0C4B1A7
:10027000012DA0EBC35009DCF0BC4FF0004202EAB4
:10028000C352DBB200F5000000F036BB400000F1C5
:10029000807000EBC350A0F1807040EAD17049003B
:1002A00009E0490841EAC071A0EBC35000F5000025
:1002B000400800EBC350F0BC00F015BB61420122C6
:1002C00002EB4101001BF6E7F0BC704781F00041F2
:1002D000AAE780F00040A7E780EA010210B502F02B
:1002E0000043400022D04A001FD0010E01EB1261F2
:1002F000C0F35600C2F3560240F4000042F400027C
:10030000A0FB022000047F39140400D0401C50EAF6
:10031000124001D44000491EC2B20C0604EBD010BA
:10032000401C4008802A02D003E0002010BD20F0CD
:100330000100002900DA0020184310BD30B480EA23
:10034000010202F0004530F0004221F0004013D0DD
:1003500090B1C30DD40DC2F31601C0F31600E41A18
:1003600041F4000140F400027D34914201D3641C49
:1003700000E04900002C02DA30BC002070474FF446
:1003800000000023914201D3891A034340084FEA39
:100390004101F7D151B1914202D14FF0004105E046
:1003A00002D24FF0010101E06FF0010103EBC450F4
:1003B000284430BC00F097BA2DE9FE4F804681EA10
:1003C0000300C00F0C46009021F0004123F00045CF
:1003D000B8EB0200A94105D24046214690461C4692
:1003E0000B46024623F00040104347D0270DC7F3C9
:1003F0000A00C3F30A510290401A019040286BDAB8
:10040000C3F3130040F4801B0098924620B10023F0
:10041000D2EB030A63EB0B0B01985946C0F1400283
:10042000504600F02FFA06460D4650465946019AAE
:1004300000F047FA10EB08006141002487EA1152EE
:1004400084EAE7731A4340D0009A62B3019A012A02
:100450004FEA075215DC001B61EB02014FF000422E
:1004600002EA0752CDE90042001C41F580113246F4
:100470002B4600F07EFA03B0BDE8F08F40462146DF
:10048000F9E7001B61EB0201001C41F58013001825
:100490005B412018A2F5001747EB030140EAD57035
:1004A000B6196D4111E06D084FEA360645EAC07590
:1004B0004FEA0752001B61EB0201001C41F580115D
:1004C00049084FEA30000019514132462B4603B02B
:1004D000BDE8F04F00F03EBA009801224000002332
:1004E000D0EB020263EBE073009821464FEAE07420
:1004F000B8EB000061EB0401E9E783F000435BE740
:1005000081F0004158E72DE9FE4F81EA030404F031
:10051000004421F0004100944FF0000B23F0004311
:1005200050EA01045ED052EA03045BD0C3F30A54DC
:10053000C1F30A552C44A4F2F3340194A0FB0254F5
:10054000C1F3130141F48011C3F3130343F4801387
:1005500001FB024400FB034E840A970A44EA8154DB
:1005600047EA8357A4FB076802958D0A05FB0785B8
:100570004FEA932C04FB0C542705029D4FEA0658C2
:1005800047EA1637B5EB08056EEB070C870E920E9F
:1005900047EA811742EA8312A7FB0201B6EB0B017F
:1005A00064EB00042B0D43EA0C335E1844EB1C5043
:1005B000DA465146E7FB0201C5F313044FEA0B3359
:1005C00043EA14534FEA0432019C43EA0603A4F1C0
:1005D0000C040294009CCDE900B400F0CAF903B009
:1005E000BDE8F08F00200146F9E72DE9F04D81EAE2
:1005F000030404F0004B21F0004514464FF0000ABC
:1006000023F0004150EA050220D054EA01021DD037
:10061000C5F30A570246C5F31303C1F31300C1F330
:100620000A5640F4801543F48013A7EB0608101B0C
:10063000D64608F2FD3873EB050002D308F1010835
:1006400001E092185B41B8F1000F03DA0020014687
:10065000BDE8F08D00204FF48011064684460EE080
:10066000171B73EB050705D3121B63EB050306434A
:100670004CEA010C49084FEA300092185B4150EAFD
:100680000107EDD152EA030012D082EA040083EAA6
:100690000501084305D0101BAB4106D201220023FF
:1006A00006E000224FF0004302E06FF00102531019
:1006B0001AEB06004CEB085110EB0A0041EB0B0162
:1006C000BDE8F04D00F046B9C10F80EAE070084483
:1006D000CA079623002100F00FB996230022114685
:1006E00000F00AB90EB5C10F80EAE0700844CA07ED
:1006F000002140F233438DE80E000A460B4600F01D
:1007000038F903B000BD00F0004220F00040C10DF8
:10071000C0F3160040F400007F2901DA0020704782
:10072000962903DCC1F19601C84001E09639884062
:10073000002AF4D04042704720F00040C10DC0F3C1
:10074000160040F400007F2901DA00207047962946
:1007500003DCC1F19601C840704796398840704764
:1007600070B5C1F30A5201F000450024C1F3130132
:1007700040F2FF3341F480119A4201DA002070BD4B
:1007800040F233439A42A2F2334203DC524200F079
:1007900088F800E090402C43F1D0404270BD00F05A
:1007A000004230F000400AD0C10D01F56071C0F385
:1007B000160042EA0151C208400711437047002069
:1007C0000146704730B5041E71F1000404DB4FF0A0
:1007D0000044404264EB0101141E73F1000405DB88
:1007E0001C464FF00043524263EB04038B4208BFA8
:1007F000824230BD30B5041E71F1000404DB4FF0BD
:100800000044404264EB0101141E73F1000405DB57
:100810001C464FF00043524263EB0403994208BF69
:10082000904230BD01F0004330B421F0004150EA65
:10083000010206D00A0DA2F56072C1F31301002A6D
:1008400002DC30BC00207047440F44EAC104C10000
:10085000E01830BC00EBC25000F045B8002801DBC6
:10086000C0F10040002901DBC1F100418142704725
:10087000002801DBC0F10040002901DBC1F100418B
:1008800088427047202A04DB203A00FA02F1002057
:1008900070479140C2F1200320FA03F319439040BE
:1008A0007047202A04DB203A21FA02F00021704729
:1008B00021FA02F3D040C2F12002914008431946C8
:1008C0007047202A06DBCB17203A41FA02F043EAB0
:1008D000E07306E041FA02F3D040C2F120029140F9
:1008E0000843194670470029A8BF7047401C4900BB
:1008F00008BF20F00100704710B4B0FA80FC00FA85
:100900000CF050EA010404BF10BC704749B1CCF1AF
:10091000200421FA04F411FA0CF118BF012121433B
:100920000843A3EB0C01CB1D4FEA00614FEA1020F6
:1009300042BF002010BC704700EBC3501044002998
:10094000A4BF10BC7047401C490008BF20F0010044
:1009500010BC704710B5141E73F1000408DA401C77
:1009600041F1000192185B411A4301D120F00100CE
:1009700010BD2DE9F04D92469B4611B1B1FA81F2BE
:1009800002E0B0FA80F220329046FFF77BFF044687
:100990000F4640EA0A0041EA0B0153465A46084313
:1009A00013D0114653EA010019D0C8F14002504655
:1009B000FFF777FF05460E46504659464246FFF779
:1009C00061FF084305D0012004E020463946BDE818
:1009D000F08D0020054346EAE0762C4337430A9821
:1009E0006305E40AA0EB08000022FD0A44EA47542C
:1009F0000A3002D500200146E9E7010510196941D6
:100A0000DDE9084500196941BDE8F04DA2E70000A5
:100A1000064C074D06E0E06840F0010394E807004B
:100A200098471034AC42F6D3FFF7C2FBE00301084D
:100A30000004010870B58C1810F8015B15F007036D
:100A400001D110F8013B2A1106D110F8012B03E067
:100A500010F8016B01F8016B5B1EF9D12B0705D46F
:100A60000023521E0DD401F8013BFAE710F8013BB8
:100A7000CB1A921C03E013F8015B01F8015B521ED4
:100A8000F9D5A142D8D3002070BD00BFFEE7000019
:100A900010B588B00220154908701548D0F8B40286
:100AA0001349D1F8B012124AD2F8AC22104BD3F845
:100AB000A832CDE90432CDE906100D48D0F8A412D1
:100AC000D0F8A0020B4A52690A4B1B69094CCDE9C8
:100AD0000032CDE90201E368A2686168206804F091
:100AE00065FF1C2004F078FD08B010BDAC030020A9
:100AF000C8000020E05D02201CB5002000900346E5
:100B0000024601460190642004F0A6FB4FF47A707F
:100B100001F03CFF00200090034602466421019052
:100B200004F09AFB4FF47A7001F030FF002000903F
:100B3000034664220146019004F08EFB4FF47A7064
:100B400001F024FF0020009064230246014601903A
:100B500004F082FB4FF47A7001F018FF002064214A
:100B600003460246CDE90010014604F075FB4FF440
:100B70007A7001F00BFF642000210B460A46CDE994
:100B80000010084604F068FB4FF47A7001F0FEFE96
:100B90001CBD000010B588B0022013490870002069
:100BA00004900590069007901048002302681048B2
:100BB00040690F4909690E4CCDE90232CDE90010B8
:100BC000E368A2686168206804F0F0FE0020214616
:100BD000086006480068486000208860C8600861B6
:100BE000486108B010BD0000AC030020B003002035
:100BF000E05D02202DE9F04F89B002204C490870D9
:100C00004C49097801EB41014B4A02EBC1014869AB
:100C1000FFF763FD8346494801685846FFF75CFBD0
:100C20008246FFF770FD04464249097801EB410115
:100C3000414A02EBC1010869FFF74FFD83463F4877
:100C400001685846FFF748FB8246FFF75CFD054602
:100C50003849097801EB4101374A02EBC101C86804
:100C6000FFF73BFD8346354801685846FFF734FBE4
:100C70008246FFF748FD06462E49097801EB4101FF
:100C80002D4A02EBC1018868FFF727FD83462B48F8
:100C900001685846FFF720FB8246FFF734FD074600
:100CA0002449097801EB4101234A02EBC10148685C
:100CB000FFF713FD8346214801685846FFF70CFBF8
:100CC0008246FFF720FD80461A49097801EB410171
:100CD000194A52F83100FFF700FD834617480168B2
:100CE0005846FFF7F9FA8246FFF70DFD8146144892
:100CF000CDE90476CDE90654406911490969DFF868
:100D000040C0CDE90298CDE90010DCF80C30DCF8E9
:100D10000820DCF80410DCF8000004F047FE074867
:100D200001680448007804F08BFC09B0BDE8F08F3E
:100D3000AC030020A6000020C8000020980300207B
:100D4000E05D022010B588B00220244908702448D4
:100D5000007800EB4000234901EBC00040692049C6
:100D6000097801EB41011F4A02EBC10109691C4AE4
:100D7000127802EB42021B4B03EBC202D268184B03
:100D80001B7803EB4303174C04EBC3039B68CDE9CB
:100D90000432CDE906101248007800EB40002146ED
:100DA00001EBC00042680E48007800EB400051F8AB
:100DB00030000D4949690C4B1B690B4CCDE90031E2
:100DC000CDE90202E368A2686168206804F0EEFDE4
:100DD0000348007804F000FC08B010BDAC0300200C
:100DE000A6000020C8000020E05D022010B588B0F9
:100DF0000220134908700020049005900690079087
:100E0000104840680F4909680E4A52690D4B1B692A
:100E10000C4CCDE90032CDE90210E368A2686168AC
:100E2000206804F0C3FD0020009022460190516824
:100E3000002310681A4604F0C1FB08B010BD000082
:100E4000AC030020E05D022010B504F073F804F05C
:100E500031FA10BD1FB50E4B0FCB8DE80F000120EE
:100E600001F06CFD60B10021252001F017FC09485C
:100E70000068401C0749086004F052FC01F048F982
:100E8000012001F053FD0521034801F0A5FD1FBD20
:100E90006C650008A80300200004024010B540F271
:100EA000046004F023FB03231A461021054803F0D5
:100EB000DDF90221034803F0D5F90121014803F0CF
:100EC000D3F910BD001001407047704710B54FF4C2
:100ED000804001F07DFE90B14FF4804001F072FE41
:100EE0000F4805F0E9F90E48803005F0E5F90120DA
:100EF00005F042FA05F0D6F903F05AFD0FE04FF481
:100F0000005001F065FE50B14FF4005001F05AFE60
:100F1000044803F033FD4FF4804001F04BFE10BD58
:100F200000680140000008C010B58021FE2001F0DB
:100F3000B5FB0021FE2001F0B1FB1021D22001F011
:100F4000ADFB5521222001F0A9FB56215A2001F0CA
:100F5000A5FB40215B2001F0A1FB4A215C2001F0B0
:100F60009DFB5721222001F099FBFA21012001F07D
:100F700095FB7021022001F091FB01210F2001F06F
:100F80008DFB0121032001F089FB2C21042001F0BD
:100F900085FB0021E22001F081FB6421E32001F0C8
:100FA0007DFB0221E42001F079FB5821E52001F0CE
:100FB00075FB0321E62001F071FB2021E72001F001
:100FC0006DFB0421E82001F069FBB021E92001F06C
:100FD00065FB0921EA2001F061FBC421EB2001F04F
:100FE0005DFB0021052001F059FB0021062001F0E6
:100FF00055FB0021072001F051FB0021082001F0E2
:101000004DFB0121092001F049FBE8210A2001F0F4
:1010100045FB02210B2001F041FB88210C2001F04F
:101020003DFB02210D2001F039FB02210E2001F0D1
:1010300035FB2221102001F031FBFD21112001F0B0
:101040002DFB2A21122001F029FB0021132001F0A1
:1010500025FB1021142001F021FB0A21152001F0AD
:101060001DFB0521162001F019FB0121172001F0BD
:1010700015FB4421182001F011FB4421192001F037
:101080000DFB1E211A2001F009FB00211B2001F09D
:1010900005FBC1211C2001F001FB08211D2001F0EE
:1010A000FDFA60211E2001F0F9FA16211F2001F03F
:1010B000F5FAFF21202001F0F1FAF821212001F0BA
:1010C000EDFA5721222001F0E9FAA221242001F0B3
:1010D000E5FA0221262001F0E1FA01212F2001F09A
:1010E000DDFAF721302001F0D9FA5021312001F04A
:1010F000D5FA0021322001F0D1FA0421392001F083
:10110000CDFA18213A2001F0C9FA20213B2001F044
:10111000C5FA00213C2001F0C1FA00213D2001F078
:10112000BDFA00213E2001F0B9FA00213F2001F074
:10113000B5FA1021502001F0B1FA8221532001F0BC
:10114000ADFA8021542001F0A9FA8021552001F048
:10115000A5FA8221562001F0A1FA40218B2001F04E
:101160009DFA40218C2001F099FA40218D2001F058
:1011700095FA2E218E2001F091FA2E218F2001F078
:101180008DFA2E21902001F089FA3C21912001F066
:1011900085FA5021922001F081FA12215D2001F0A0
:1011A0007DFA1A215E2001F079FA24215F2001F0F6
:1011B00075FA0721602001F071FA1521612001F014
:1011C0006DFA0821622001F069FA0321642001F020
:1011D00065FAE821662001F061FA8621672001F0B6
:1011E0005DFAA221682001F059FA1821692001F066
:1011F00055FA0F216A2001F051FA00216B2001F00D
:101200004DFA5F216C2001F049FA8F216D2001F029
:1012100045FA55216E2001F041FA38216F2001F086
:101220003DFA1521702001F039FA3321712001F0C7
:1012300035FADC21722001F031FA8021732001F0AF
:101240002DFA0221742001F029FA3F21752001F0C6
:1012500025FA0221762001F021FA3621772001F0CB
:101260001DFA8821782001F019FA8121792001F0F6
:1012700015FA81217A2001F011FA22217B2001F058
:101280000DFAFF217C2001F009FA4821932001F09A
:1012900005FA0021942001F001FA0521952001F0C2
:1012A000FDF9E821962001F0F9F94021972001F09D
:1012B000F5F9F021982001F0F1F93821B12001F081
:1012C000EDF93821B22001F0E9F93821BD2001F013
:1012D000E5F93621BE2001F0E1F9C921D02001F065
:1012E000DDF91021D12001F0D9F99021D22001F0AF
:1012F000D5F98021D32001F0D1F9F221D52001F0D8
:10130000CDF91621D62001F0C9F99221DB2001F098
:10131000C5F9A521DC2001F0C1F92321DF2001F06E
:10132000BDF90021D92001F0B9F90021DA2001F03E
:10133000B5F90921E02001F0B1F92021EC2001F0FC
:10134000ADF90421ED2001F0A9F94021EE2001F0D2
:10135000A5F94021EF2001F0A1F90321802001F03F
:101360009DF90321802001F099F910219F2001F0BF
:1013700095F92021A02001F091F93821A12001F058
:101380008DF94E21A22001F089F96321A32001F0FB
:1013900085F97621A42001F081F98721A52001F0AB
:1013A0007DF9A221A62001F079F9B821A72001F04A
:1013B00075F9CA21A82001F071F9D821A92001F0FE
:1013C0006DF9E321AA2001F069F9EB21AB2001F0CE
:1013D00065F9F021AC2001F061F9F821AD2001F0B0
:1013E0005DF9FD21AE2001F059F9FF21AF2001F098
:1013F00055F90021C02001F051F91021C12001F060
:101400004DF91C21C22001F049F93021C32001F01F
:1014100045F94321C42001F041F95421C52001F0D0
:101420003DF96521C62001F039F97521C72001F089
:1014300035F99321C82001F031F9B021C92001F01C
:101440002DF9CB21CA2001F029F9E621CB2001F0AA
:1014500025F9FF21CC2001F021F90221F02001F033
:101460001DF90121F12001F019F90121F22001F00B
:1014700015F93021F32001F011F99F21F92001F035
:101480000DF97821FA2001F009F90121FE2001F07F
:1014900005F9F521002001F001F91A21022001F0DF
:1014A000FDF8A0210A2001F0F9F860210B2001F0DD
:1014B000F5F808210C2001F0F1F84C210E2001F084
:1014C000EDF839210F2001F0E9F83F21112001F05A
:1014D000E5F87221122001F0E1F81321084601F02D
:1014E000DDF84221142001F0D9F84321152001F044
:1014F000D5F8C221162001F0D1F8A821172001F05B
:10150000CDF81821084601F0C9F84021192001F052
:10151000C5F8D0211A2001F0C1F8F5211B2001F0F7
:10152000BDF84021702001F0B9F85821712001F078
:10153000B5F83021722001F0B1F84821732001F094
:10154000ADF82021742001F0A9F86021752001F088
:10155000A5F82021772001F0A1F83221782001F0B0
:101560009DF80321302001F099F84021312001F04D
:1015700095F8E021322001F091F8E021332001F0CC
:101580008DF8E021342001F089F8B021352001F0F8
:1015900085F8C021362001F081F8C021372001F004
:1015A0007DF80421382001F079F80921392001F073
:1015B00075F812213A2001F071F81C213B2001F04E
:1015C0006DF828213C2001F069F831213D2001F01F
:1015D00065F844213E2001F061F857213F2001F0D9
:1015E0005DF86C21402001F059F88121412001F083
:1015F00055F89421422001F051F8A721432001F031
:101600004DF8B821442001F049F8D621452001F0D9
:1016100045F8EE21462001F041F80D21472001F068
:101620003DF88321532001F039F82221542001F0A4
:1016300035F80321552001F031F80021562001F042
:101640002DF80021572001F029F80021582001F041
:1016500025F80021592001F021F80021FE2001F099
:101660001DF89021D22001F019F80021252001F069
:1016700015F810BD2DE9F05F06460F4693469946D2
:10168000DDF828A003E19AF8000080285EDA9AF8D5
:101690000080B8F1200F04DDA8F120001FFA80F8C7
:1016A00001E04FF00008002548E000241DE008EBB1
:1016B0004800000100EB45007849095C802020418A
:1016C000014039B17A1991B2321990B25A4600F0FC
:1016D000E9F808E0CB4506D07A1991B2321990B2F8
:1016E0004A4600F0DFF8601CC4B2082CDFDB00249F
:1016F00020E008EB4800000100EB4500401C674972
:10170000085C80212141084040B17A1991B2321918
:10171000083290B25A4600F0C5F809E0CB4507D030
:101720007A1991B23219083290B24A4600F0BAF8EA
:10173000601CC4B2042CDCDB681CC5B2182DB4DB01
:101740000AF1010A06F10C0086B2A0E04FF0000891
:1017500094E0C8EB081000EB80005149085C9AF84F
:101760000010884273D1C8EB081000EB80004C4990
:10177000084440789AF8011088427BD1002577E030
:10178000002420E0C8EB081000EB80004449084426
:10179000C01C05EB4501415C80202041014039B16E
:1017A0007A1991B2321990B25A4600F07BF808E0EB
:1017B000CB4506D07A1991B2321990B24A4600F060
:1017C00071F8601CC4B2082CDCDB002423E0C8EBF9
:1017D000081000EB800032490844C01C05EB4501AD
:1017E000491C415C80202041014041B17A1991B2ED
:1017F0003219083290B25A4600F054F809E0CB454D
:1018000007D07A1991B23219083290B24A4600F0E4
:1018100049F8601CC4B2082CD9DB002424E0C8EBD2
:10182000081000EB80001E490844C01C05EB450170
:10183000891C415C80202041014049B17A1991B254
:101840003219103290B25A4600F02CF80AE011E03A
:10185000CB4507D07A1991B23219103290B24A466C
:1018600000F020F8601CC4B2082CD8DB681CC5B29C
:10187000182D85DB08F101001FFA80F8B8F1640F1C
:10188000FFF667AF0AF1020A06F1180086B29AF86D
:10189000000000287FF4F7AEBDE8F09F6D6B0008F4
:1018A000A4FB000870B505460E461446314628468E
:1018B00000F099F9201200F0ABF9E0B200F0A8F9BD
:1018C00070BD00BFFEE72DE9F05F0746884615466C
:1018D0001E46DDF82890002408EB0600401E83B267
:1018E0007819401E82B24146384600F05BF9A246A4
:1018F00019E04FF0000B10E019F8140000F088F91F
:10190000012101EB440119F8010000F081F9601C8C
:1019100084B20BF101001FFA80FBB345ECDB0AF146
:1019200001001FFA80FAAA45E3DBBDE8F09F000042
:1019300070B5044640F23F13EF220021084600F044
:1019400031F920210B4802F08FFC00250DE0002624
:1019500008E02112084800F0ABFAE1B2064800F0B6
:10196000A7FA761CF02EF4D36D1CB5F5A07FEED34C
:1019700070BD000000100140003C004010B500F0B8
:1019800047FA00F0FDF8112000F05CF9782000F033
:10199000FDFFCF2000F056F9002000F039F9C120FA
:1019A00000F036F9302000F033F9ED2000F04AF96C
:1019B000642000F02DF9032000F02AF9122000F035
:1019C00027F9812000F024F9E82000F03BF9852078
:1019D00000F01EF9002000F01BF9792000F018F942
:1019E000CB2000F02FF9392000F012F92C2000F064
:1019F0000FF9002000F00CF9342000F009F9022062
:101A000000F006F9F72000F01DF9202000F000F9A1
:101A1000EA2000F017F9002000F0FAF8002000F0AA
:101A2000F7F8C02000F00EF91D2000F0F1F8C120F9
:101A300000F008F9122000F0EBF8C52000F002F9E0
:101A4000332000F0E5F83F2000F0E2F8C72000F076
:101A5000F9F8922000F0DCF83A2000F0F3F8552075
:101A600000F0D6F8362000F0EDF8082000F0D0F8AD
:101A7000B12000F0E7F8002000F0CAF8122000F0D2
:101A8000C7F8B62000F0DEF80A2000F0C1F8A22066
:101A900000F0BEF8442000F0D5F8022000F0B8F8BD
:101AA000F22000F0CFF8002000F0B2F8262000F07D
:101AB000C9F8012000F0ACF8E02000F0C3F80F20D6
:101AC00000F0A6F8222000F0A3F81C2000F0A0F8F7
:101AD0001B2000F09DF8082000F09AF80F2000F07D
:101AE00097F8482000F094F8B82000F091F83420DE
:101AF00000F08EF8052000F08BF80C2000F088F83C
:101B0000092000F085F80F2000F082F8072000F08F
:101B10007FF8002000F07CF8E12000F093F800202E
:101B200000F076F8232000F073F8242000F070F81D
:101B3000072000F06DF8102000F06AF8072000F090
:101B400067F8382000F064F8472000F061F84B2077
:101B500000F05EF80A2000F05BF8132000F058F85F
:101B6000062000F055F8302000F052F8382000F040
:101B70004FF80F2000F04CF8292000F063F810BD5A
:101B800010B51021064802F06DFB642000F0FEFE47
:101B90001021034802F068FB322000F0F7FE10BD70
:101BA000001001402DE9F04104460D4616461F463F
:101BB0002A2000F047F8E1B2201200F039F8F1B223
:101BC000301200F035F82B2000F03CF8E9B2281272
:101BD00000F02EF8F9B2381200F02AF82C2000F0AC
:101BE00031F8BDE8F08170B504460D462A2000F0BA
:101BF00029F8E1B2201200F01BF82B2000F022F8A7
:101C0000E9B2281200F014F82C2000F01BF870BD87
:101C100010B504462021044802F026FB2146034863
:101C200000F046F910BD000000100140003C0040EB
:101C300070B505460C462846FFF7EAFF2046FFF739
:101C4000E7FF70BD10B504462021044802F00AFBEE
:101C50002146034800F02CF910BD0000001001409F
:101C6000003C004000BFFEE77047000010B50028B0
:101C700007DA0A07140E054A00F00F031B1FD4549D
:101C800003E00A07130E024A135410BD18ED00E0DA
:101C900000E400E0704700002DE9F34F8BB083466D
:101CA0009BF800809BF801409BF80250A04505DAA4
:101CB000AC4201DA284606E0204604E0A84501DAF5
:101CC000284600E040468146A04505DDAC4201DDE6
:101CD000284606E0204604E0A84501DD284600E04D
:101CE000404608900898A9EB00074846FEF7FAFC22
:101CF0000022454BCDE90201FEF705FC0022434BD3
:101D0000CDE90401FEF771FCCDE90601FEF728FDDF
:101D10000990B9F1000F02DC4FF0000A18E04846C4
:101D2000FEF7E0FCCDE904013846FEF7DBFC0022BB
:101D3000354BCDE90001FEF7E6FBCDE90201DDE917
:101D40000423FEF752FCCDE90601FEF709FD8246A9
:101D50000FB900262AE0C14511D1AC4206DB601B59
:101D6000C0EB0010800090FBF7F61FE0601BC0EB9B
:101D70000010800090FBF7F000F5B47616E0A14566
:101D800009D1A5EB0800C0EB0010800090FBF7F034
:101D900000F178060AE0A94508D1A8EB0400C0EBE1
:101DA0000010800090FBF7F000F1F006B6F5B47F6C
:101DB00002DD4FF4B47004E0002E01DA002000E0F0
:101DC000304681B20C980180BAF1640F01DD6420C5
:101DD00005E0BAF1000F01DA002000E05046C1B280
:101DE0000C9881700998642801DD642005E0099849
:101DF000002801DA002000E00998C1B20C98C170F7
:101E00000DB0BDE8F08F00000000594000E06F40C9
:101E100000B587B040F2036003F068FB40F2046055
:101E200003F064FB4FF4C06003F060FB40F20F70FE
:101E300003F05CFB01211A4802F0A0FA28230322D8
:101E40001821184802F012FA102303220421154821
:101E500002F00CFA4FF4816303221021124802F0C1
:101E600005FA3023032210210F4802F0FFF9002069
:101E700001904FF4827000900020029003200590A2
:101E80004FF40070039000200690049069460748C4
:101E900003F037FD054803F021FD07B000BD000049
:101EA00000023000000C014000100140003C0040E6
:101EB00070B504460D4600BF0221204603F019FD0F
:101EC0000028F9D02946204603F011FD00BF01216A
:101ED000204603F00EFD0028F9D0204603F003FD54
:101EE000C0B270BD704710B500F05AFD10BD0000C3
:101EF00010B51E48006840F001001C490860084603
:101F000040681B490840194948600846006819495B
:101F10000840164908600846006820F480200860E0
:101F2000084640681449084010494860084600685F
:101F300020F0A05008600020C8624FF47F00886045
:101F400000200A49803108600848D0F8900020F04D
:101F500080500649903108604FF48000091D0860E8
:101F60000648091D086003F09BFE10BD00100240EA
:101F70000C00FFE0FFFFF6FEFFFF00DF1030002047
:101F800010B50121084804F081F958B10120074932
:101F9000087007480068401C054908600121024894
:101FA00004F070F910BD0000001000401400002083
:101FB000A403002000BFFEE72DE9F04F8DB00446DA
:101FC0000D4694F800B0607880380B90A078803887
:101FD0000A900A98FEF786FB3D4A3E4BCDE9040184
:101FE000FEF791FACDE906015846FEF77BFB07465E
:101FF000DDE90623FEF7E0F9CDE90801FEF7B0FBC5
:1020000006460A98FEF76EFB0746334A334BFEF747
:102010007AFACDE906010B98FEF764FB304A314BA2
:10202000CDE90001FEF76FFA074688465846FEF7ED
:1020300059FB3A464346CDE90201FEF75EFACDE987
:102040000401DDE90623FEF758FACDE90801FEF7A1
:1020500087FB81460B98FEF745FB0746224A234B38
:10206000FEF751FACDE906015846FEF73BFBCDE9F4
:102070000401DDE90623FEF79FF9CDE90801FEF72B
:102080006FFB8246FF2E01DDFF2004E0002E01DA07
:10209000002000E030462870B9F1FF0F01DDFF207D
:1020A00005E0B9F1000F01DA002000E04846687051
:1020B000BAF1FF0F01DDFF2005E0BAF1000F01DAF0
:1020C000002000E05046A8700DB0BDE8F08F000081
:1020D0003BDF4F8D976EF63F0C022B8716D9E63FFC
:1020E0006ABC74931804D63F273108AC1C5AFC3FD5
:1020F00002E008C8121F08C1002AFAD170477047D1
:10210000002001E001C1121F002AFBD1704700002E
:1021100010B532480078092800D010BD304800784A
:1021200008B900F051F92E480078012801D100F0DB
:1021300077F82C48006818B92B48006800B9ECE71C
:102140002848006878B326480078022802D100F0B9
:10215000CFF8E2E72248007803283CD12248006803
:10216000F0B12248007810B902F0CAFDD5E71F4847
:102170000078012806D102F017FE1C4800780128DB
:1021800000D0CAE719480078022802D102F05EFDAB
:10219000C3E716480078032802D102F053FEBCE7DB
:1021A00000F062F917E0FFE71048007808B902F084
:1021B000A7FD0E480078012801D102F0F5FD0B487B
:1021C0000078022801D102F041FD08480078032878
:1021D00001D102F037FE00BF9FE70000AC030020F2
:1021E000A4000020C4000020C0000020A5000020A2
:1021F00010B540F2026003F079F94FF4C06003F0CB
:1022000075F94FF4807303221821044802F02EF868
:102210000421080603F09CF810BD000000080140EE
:1022200070B5002400252949294800F07BFF0446A9
:10223000D4B928480068401C264908600846006850
:10224000012802D10320244908702348007803287C
:1022500010D12048006802280CD300201D490860D6
:1022600004201D49087070BD00201A490860022032
:10227000194908701949154802F0ACFA0546012DB4
:102280001AD117480068401C1549086008460068C4
:10229000032814DB002008600D4801F097FE114967
:1022A0000870084600781E2809D002200E490870E0
:1022B00004200E490870D6E700200949086018225A
:1022C00002490648FDF78CFF00BFCCE7305C0220D6
:1022D000B0000020A00300209C030020485C0220E6
:1022E000A8000020A6000020A4000020AC030020CD
:1022F00070B5002400252B492B4800F013FF04463D
:10230000D4B92A480068401C28490860084600687B
:10231000012802D1032026490870254800780328A7
:1023200010D12248006802280CD300201F49086001
:1023300004201F49087070BD00201C49086002205D
:102340001B4908701B49174802F044FA0546012D45
:1023500013D119480068401C1749086008460068F6
:10236000052818DB0020086018220E491348FDF7E5
:1023700037FF032012490870DDE70F480068012885
:1023800009DD00200C49086001200D490870032078
:102390000C490870CFE7182202490648FDF720FFD4
:1023A00000BFC8E7305C0220B0000020A00300207E
:1023B0009C030020485C0220A8000020605C0220F2
:1023C000A4000020AC03002070B5002400251F49A4
:1023D0001F4800F0A7FE04468CB91E480078A0B93B
:1023E0001D480068401C1C49086008460068022817
:1023F0000BD30020086001201649087070BD002032
:102400001549086002201349087014490F4802F06A
:10241000E1F90546012D0ED111480068401C104914
:10242000086008460068032808DB002008600120D7
:102430000C490870E2E700200949086018220349A6
:102440000648FDF7CDFE00BFD8E70000305C022053
:10245000B00000209C030020A0030020485C022064
:10246000A8000020A400002070B5002520492148C4
:1024700000F058FE0446D4B91F480068401C1E49AD
:10248000086008460068012802D103201B49087033
:102490001A480078032810D11748006802280CD386
:1024A00000201549086004201449087070BD002000
:1024B0001149086002201149087011490C4802F0C6
:1024C00089F905468DB900200E49086018210C488D
:1024D000FDF79FFE18210C48FDF79BFE01200B49DC
:1024E000087003200A490870E0E700BFDEE700003B
:1024F000305C0220B0000020A00300209C030020DC
:10250000605C0220A8000020485C0220A40000209B
:10251000AC03002038B504460D465E4800905E4886
:10252000006840F480605C4908605B48143802F041
:1025300054F85848009005E00098411E009108B9F1
:10254000FF2038BD01215448143802F017F8002844
:10255000F2D06FF0010243214F48143802F027F8FF
:102560004C48009005E00098411E009108B9FF20FA
:10257000E7E702214848143802F000F80028F2D0BA
:1025800002214548143801F0F0FF4248009005E070
:102590000098411E009108B9FF20D2E780213E48F3
:1025A000143801F0EBFF0028F2D021463A481438E5
:1025B00001F0A8FF3748009005E00098411E009107
:1025C00008B9FF20BDE704213348143801F0D6FFD5
:1025D0000028F2D03048006840F480602E4908603E
:1025E0002D48143801F0FEFF2B48143801F0F5FF98
:1025F0002848009005E00098411E009108B9FF208E
:102600009FE701212448143801F0B8FF0028F2D0D8
:10261000012242212048143801F0C9FF1D480090D2
:1026200005E00098411E009108B9FF2089E70221CA
:102630001948143801F0A2FF0028F2D002211648F0
:10264000143801F092FF00211348143801F0DEFE27
:102650001048009005E00098411E009108B9FF2045
:102660006FE740210C48143801F088FF0028F2D0B1
:102670000948143801F0B6FF0748143801F03EFF4E
:1026800028700548006840F4806003490860002015
:1026900057E70000002D31011458004038B50446BA
:1026A0000D463D48009000BF3C493D4801F066FFA3
:1026B0000028F9D13A4801F090FF3748009005E032
:1026C0000098411E009108B9FF2038BD012134480F
:1026D00001F054FF0028F3D06FF00102422130488E
:1026E00001F065FF2C48009005E00098411E009124
:1026F00008B9FF20E9E70221294801F03FFF00283F
:10270000F3D00221264801F030FF2348009005E075
:102710000098411E009108B9FF20D6E7802120488B
:1027200001F02CFF0028F3D001211D4801F06EFEBE
:1027300021461B4801F0E6FE1748009005E000988E
:10274000411E009108B9FF20BFE70421144801F0A1
:1027500015FF0028F3D00121114801F057FE29464A
:102760000F4801F0CFFE0C48009005E00098411E94
:10277000009108B9FF20A8E78021094801F0FEFE7A
:102780000028F3D00121064801F040FE044801F082
:1027900029FF002099E70000002D31010200008090
:1027A000005800400348006820F00100014908601B
:1027B00070470000000005500348006840F0010029
:1027C00001490860704700000000055000B593B053
:1027D00040F2026002F08AFE40F2036002F086FEE0
:1027E00040F2046002F082FE4FF4C05002F07EFE20
:1027F0004FF4C06002F07AFE01221421022001F0A1
:102800007FFD4023032204212C4801F02FFD4FF4CB
:102810005073032204212A4801F028FD4FF43C6341
:1028200003220421274801F021FD802303220421F3
:10283000234801F01BFD1023032204211F4801F04F
:1028400015FD00200D900E900F90802010908000BC
:102850001190002012900DA800F046F840F20150AF
:1028600002F044FE0521184800F0D6F817480690FB
:102870001748089000208DF832004FF416400A9057
:1028800000208DF8300001208DF8310040020790C3
:102890008000099080000B90142208A96846FDF77B
:1028A0009FFC05210848DDE9062300F0F1F8052129
:1028B000054800F0A1F813B000BD00000008014079
:1028C000000C0140001001400004024028000550A7
:1028D000B40300200348006840F4804001490860C8
:1028E000704700000000055000210B4A126844F2B6
:1028F00001039A43084B1A6002681143426811436E
:1029000082681143C268114302691143426911434D
:102910001A46116070470000000005500249C9685E
:102920000143014AD16070470000055002494969DE
:102930000143014A516170470000055001460448B7
:102940000069084008B9002070470120FCE700003A
:102950000000055038B5044669460020FFF7DAFD4F
:1029600008B1FF2038BD9DF8000020702078F9E7FD
:1029700010B502F0EBFDFFF729FFFEF78FFAFFF726
:1029800037FCFEF7D1FA002010BD000003490860B3
:1029900000BF024909680029FBD1704718000020D8
:1029A0000448006820B103480068401E01490860DF
:1029B000704700001800002010B501EB8102930061
:1029C00000F10802D25822F0010301EB81029400C9
:1029D00000F10802135110BD10B501EB8102930004
:1029E00000F10802D25842F0010301EB8102940089
:1029F00000F10802135110BD10B501EB81029300E4
:102A000000F10802D25842F0200301EB8102940049
:102A100000F10802135110BD10B501EB81029300C3
:102A200000F10802D25822F0010301EB8102940068
:102A300000F108021351002301EB8102940000F120
:102A40000802135101EB8102940000F10C021351B2
:102A500001EB8102940000F11002135101EB81029D
:102A6000940000F11402135142688C000F23A3401C
:102A70001A434260044A904204D1052902D100223F
:102A8000024B1A6010BD0000000402400007024023
:102A90000FB430B501EB81039D0000F11003059CDC
:102AA0005C5101EB81039D0000F11403079C5C5114
:102AB000099B9CB201EB81039D0000F10C035C516A
:102AC00001EB81039C0000F108031A5922F47C52A7
:102AD000089C069B23430A9C23431A4301EB810372
:102AE0009C0000F108031A519DF82C30012B0ED1E7
:102AF00001EB81039C0000F108031B5943F04004E3
:102B000001EB81039D0000F108035C510DE001EB36
:102B100081039C0000F108031B5923F0400401EBE2
:102B200081039D0000F108035C519DF82D30012BBD
:102B30000ED101EB81039C0000F108031B5943F007
:102B4000800401EB81039D0000F108035C510DE05E
:102B500001EB81039C0000F108031B5923F0800462
:102B600001EB81039D0000F108035C519DF82E30BC
:102B700073B901EB81039C0000F108031B5923F09A
:102B8000100401EB81039D0000F108035C510DE08E
:102B900001EB81039C0000F108031B5943F0100472
:102BA00001EB81039D0000F108035C5130BC5DF82E
:102BB00014FB0000024909688143014A1160704713
:102BC00000040140014908607047000014040140FE
:102BD00001460748006800EA010205481438006809
:102BE00000EA010312B10BB1012070470020FCE79D
:102BF0001404014070B5054600241B48854200D1ED
:102C000000BF1A4931F8140002F070FC184931F87D
:102C1000140002F06BFC174951F82430164951F8A2
:102C200024000322182101F021FB144951F824301B
:102C3000114951F824000322042101F017FB284612
:102C400003F010FC4FF4E131284603F0A7FB042108
:102C5000284603F07AFC0821284603F07EFC28462B
:102C600003F06EFC70BD00000038014050000020F1
:102C700040000020440000204C00002048000020BC
:102C800010B504460B4931F8140002F02FFC0A4934
:102C900051F82430094951F824000322102101F091
:102CA000E5FA054850F82400044951F82410486119
:102CB00010BD000052000020300000202000002045
:102CC000034951F82010034A52F8202051617047FF
:102CD0003000002020000020034951F82010034A52
:102CE00052F82020116170473000002020000020A1
:102CF00000B503460A46184601F052FD28B11046B9
:102D000001F04EFD08B11A2000BD184601F020FD6B
:102D100028B1104601F01CFD08B11C20F4E7182B67
:102D200011D1104601F03CFD08B11A20ECE7104625
:102D300001F01FFD08B11B20E6E7104601F008FD79
:102D400008B11C20E0E7182A11D1184601F028FD2F
:102D500008B11A20D8E7184601F00BFD08B11B2076
:102D6000D2E7184601F0F4FC08B11C20CCE71B2088
:102D7000CAE700002DE9F04FA1B0054600202090E1
:102D80000A201F90EF201E9040F235101D90F02079
:102D90001C904FF496701B904FF420701A900020F6
:102DA0001990DFF878A300270FE04FF0000808E043
:102DB000002007EB870105EB810141F8280008F1AD
:102DC0000108B8F1050FF3DB7F1C092FEDDB4FF491
:102DD000FA500B900C900D900E900F901090119057
:102DE000129013904FF000094DE100BFB9F1640F4C
:102DF00009DA00201790B9F1320F01DA15901CE0C2
:102E00000120159019E0B9F1C70F0BDD02201790D2
:102E1000A9F1C800322802DA002015900DE0012047
:102E200015900AE001201790A9F16400322802DA17
:102E30000020159001E00120159000241BE104EB17
:102E4000D4715022B2EB610F0CDD0020189004EB1E
:102E5000D4712822B2EB610F01DD169023E001202E
:102E6000169020E004EBD4719F22B2EB610F0DDAD3
:102E70000220189004EBD4714910A039282902DAF5
:102E8000002016900FE0012016900CE00120189011
:102E900004EBD47149105039282902DA0020169029
:102EA00001E001201690179800EB400118980E18C9
:102EB000DDE9150101EB400B1AF804008DF8240040
:102EC000601C1AF800008DF82500E01C1AF80000BC
:102ED0008DF82600099801F087FD50B11998401C23
:102EE00019900BA850F82600401E0BA941F82600A7
:102EF000C0E00AA909A8FFF75FF808A90AA8FEF729
:102F0000CBFE9DF82910C1EB011101EB81019DF869
:102F1000282002EB420303EB021201EB42019DF871
:102F20002A20C2EB02121144C811FDF7CDFB149008
:102F3000BDF82000FDF7D1FB079006EB860055F8A1
:102F400020100798FDF770F906EB860145F821007F
:102F50001498FDF724FC0022714BCDE90001FDF728
:102F600044FBCDE9040106EB860105EB81020BF180
:102F7000010152F82100FDF712FCCDE90201DDE963
:102F80000423FDF719FACDE90601FDF74BFC06EB2A
:102F9000860105EB81020BF1010142F82100A01C22
:102FA0001AF800008DF82400099801F01DFD50B1B9
:102FB0001998401C19900BA850F82600401E0BA928
:102FC00041F8260056E00AA909A8FEF7F5FF08A96E
:102FD0000AA8FEF761FE9DF82910C1EB011101EB73
:102FE00081019DF8282002EB420303EB021201EB62
:102FF00042019DF82A20C2EB02121144C811FDF7CC
:1030000063FB1490BDF82000FDF767FB079006EB0B
:10301000860055F820100798FDF706F906EB8601A3
:1030200045F821001498FDF7BAFB00223C4BCDE98E
:103030000001FDF7DAFACDE9040106EB860105EBA4
:1030400081020BF1010152F82100FDF7A8FBCDE947
:103050000201DDE90423FDF7AFF9CDE90601FDF733
:10306000E1FB06EB860105EB81020BF1010142F861
:10307000210000BF241DB4F5F07FFFF6E0AE0AF595
:10308000207A09F10109B9F5967FFFF6AEAE48F650
:10309000A0411998884217DB00270FE04FF0000885
:1030A00008E0002007EB870105EB810141F82800CB
:1030B00008F10108B8F1050FF3DB7F1C092FEDDBE8
:1030C000002021B0BDE8F08F002722E04FF000087B
:1030D0001BE00BA850F82700C21700EB9271079075
:1030E0008810FDF7F1FA07EB870105EB81010690E7
:1030F00051F828000699FDF721F907EB870105EB48
:10310000810141F8280008F10108B8F1050FE0DB62
:103110007F1C092FDADB0120D3E70000B41C00205C
:1031200000E06F402DE9F34FC1B088464198006838
:103130004090419880683F90419840683E90419807
:10314000C0683D9040993E98401A441C3F993D9874
:10315000401A461C4FF420703C90002700203A9003
:10316000399038903790369035903490FE494FF42E
:1031700020723F9802FB001BA02108A8FDF749F828
:1031800000203B9006E000213B9848F820103B9837
:10319000401C3B903B980628F5DB4FF00009A9E165
:1031A00040980BEB400B00258EE11BF805008DF8D5
:1031B000C400681C1BF800008DF8C500E81C1BF853
:1031C00000008DF8C600319801F00EFC08B17F1C9C
:1031D00079E132A931A8FEF7EFFE9DF8C8004FF45F
:1031E000784101EA00209DF8C9104FF4FC6202EA20
:1031F000C10108439DF8CA1040EAD10A4FEA2A20CB
:1032000008A9485508AA681C02F800A030A932A8ED
:10321000FEF742FDBDF8C0103A9808443A909DF878
:10322000C2103998084439909DF8C3103898084462
:1032300038909DF8C910C1EB011101EB81029DF896
:10324000C81001EB410303EB011102EB41019DF8B2
:10325000CA20C2EB02121144C811FDF735FA3390AF
:1032600006EBD671B9EB610F35DAA54219DA33985E
:10327000FDF795FA0022BD4BCDE90001FDF7B5F948
:10328000CDE904013798FDF78AFACDE90201DDE9BD
:103290000423FDF791F8CDE90601FDF7C3FA379055
:1032A0004EE03398FDF77BFA0022B04BCDE90001E8
:1032B000FDF79BF9CDE904013598FDF770FACDE9EA
:1032C0000201DDE90423FDF777F8CDE90601FDF7FA
:1032D000A9FA359034E0A54219DA3398FDF75FFA80
:1032E0000022A24BCDE90001FDF77FF9CDE90401F1
:1032F0003698FDF754FACDE90201DDE90423FDF724
:103300005BF8CDE90601FDF78DFA369018E03398A9
:10331000FDF745FA0022954BCDE90001FDF765F96F
:10332000CDE904013498FDF73AFACDE90201DDE96F
:103330000423FDF741F8CDE90601FDF773FA349057
:10334000A81C1BF800008DF8C400319801F04CFB5C
:1033500008B17F1CB7E032A931A8FEF72DFE9DF819
:10336000C8004FF4784101EA00209DF8C9104FF4DD
:10337000FC6202EAC10108439DF8CA1040EAD10A82
:103380004FEA2A2108AAA81C1154E81C02F800A040
:1033900030A932A8FEF780FCBDF8C0103A98084466
:1033A0003A909DF8C2103998084439909DF8C3109E
:1033B0003898084438909DF8C910C1EB011101EB11
:1033C00081019DF8C82002EB420303EB021201EBDE
:1033D00042019DF8CA20C2EB02121144C811FDF748
:1033E00073F9339006EBD671B9EB610F35DAA5426C
:1033F00019DA3398FDF7D3F900225C4BCDE90001CF
:10340000FDF7F3F8CDE904013798FDF7C8F9CDE9E8
:103410000201DDE90423FCF7CFFFCDE90601FDF74A
:1034200001FA37904EE03398FDF7B9F900224F4B7F
:10343000CDE90001FDF7D9F8CDE904013598FDF794
:10344000AEF9CDE90201DDE90423FCF7B5FFCDE9D2
:103450000601FDF7E7F9359034E0A54219DA339813
:10346000FDF79DF90022414BCDE90001FDF7BDF8C4
:10347000CDE904013698FDF792F9CDE90201DDE9C5
:103480000423FCF799FFCDE90601FDF7CBF936904F
:1034900018E03398FDF783F90022344BCDE90001A1
:1034A000FDF7A3F8CDE904013498FDF778F9CDE9EB
:1034B0000201DDE90423FCF77FFFCDE90601FDF7FA
:1034C000B1F9349000BF2D1DB5EB440FFFF66DAE82
:1034D00008A8A2B2009009F1780081B2022300206E
:1034E000FEF7F1F94FF420714098A1EB40008344BE
:1034F00009F10109B145FFF653AE06FB04F000EBFC
:10350000D071B7EB610F07DB18214046FCF781FE55
:10351000002043B0BDE8F08F06FB04F0C11B3A98D1
:1035200090FBF1F03A9006FB04F0C11B399890FB38
:10353000F1F0399006FB04F0C11B389890FBF1F0D4
:1035400038903A98FDF7C0F8C8F8000006FB04F17F
:10355000C81BFDF7B9F807904FF081403799FCF789
:10356000BBFE0690079903E0B403002000E06F4023
:10357000FCF7E4FEC8F8040006FB04F1C81BFDF7E5
:10358000A3F807904FF081403699FCF7A5FE06900E
:103590000799FCF7D3FEC8F8080006FB04F1C81B26
:1035A000FDF792F807904FF081403599FCF794FEB3
:1035B00006900799FCF7C2FEC8F80C0006FB04F160
:1035C000C81BFDF781F807904FF081403499FCF754
:1035D00083FE06900799FCF7B1FEC8F810003998F1
:1035E000FDF772F8C8F81400012092E72DE9F04FBA
:1035F000D7B081460C461646D9F800A0D9F8080085
:103600005590D9F804005490D9F80C005390549870
:10361000A0EB0A0000F1010B55995398401A401C89
:1036200052904FF42070519000204E904D906C219C
:1036300032A8FCF7EEFDF7494FF42072559802FBD3
:103640000018A02106A8FCF7E4FD0020509094E2A9
:1036500008EB4A08002779E218F807008DF8BC004B
:10366000781C18F800008DF8BD00F81C18F8000050
:103670008DF8BE002F9801F0B7F918B14E98401C94
:103680004E9062E230A92FA8FEF796FC9DF8C0008C
:103690004FF4784101EA00209DF8C1104FF4FC621C
:1036A00002EAC10108439DF8C21040EAD1003190FE
:1036B0003198001206A9C8553198C1B206AA781CE3
:1036C00011542EA930A8FEF7E7FA9DF8BB001E287A
:1036D00012DC2068401C2060BDF8B8103298084405
:1036E00032909DF8BA103398084433909DF8BB107F
:1036F000349808443490EEE09DF8BA000A2815DCAE
:103700006068401C6060BDF8B8103598084435907A
:1037100032A800699DF8BA10014432A801614069DD
:103720009DF8BB10014432A84161D4E0BDF8B80057
:103730000A2804DBBDF8B800B0F5967F15DBA06859
:10374000401CA060BDF8B81038980844389032A8E2
:10375000C0699DF8BA10014432A8C161006A9DF8A1
:10376000BB10014432A80162B5E0BDF8B8000A28D8
:1037700019DBBDF8B800282815DAE068401CE060C5
:10378000BDF8B8103B9808443B9032A8806A9DF879
:10379000BA10014432A88162C06A9DF8BB1001448E
:1037A00032A8C16297E0BDF8B800282819DBBDF83F
:1037B000B800502815DA2069401C2061BDF8B81007
:1037C0003E9808443E9032A8406B9DF8BA100144E0
:1037D00032A84163806B9DF8BB10014432A881631D
:1037E00079E0BDF8B800502819DBBDF8B80096287C
:1037F00015DA6069401C6061BDF8B8104198084452
:10380000419032A8006C9DF8BA10014432A80164BE
:10381000406C9DF8BB10014432A841645BE0BDF8E8
:10382000B800962819DBBDF8B800D22815DAA069CF
:10383000401CA061BDF8B81044980844449032A8D8
:10384000C06C9DF8BA10014432A8C164006D9DF8A7
:10385000BB10014432A801653DE0BDF8B800D22894
:103860001ADBBDF8B800B0F5827F15DAE069401CBC
:10387000E061BDF8B81047980844479032A8806DC1
:103880009DF8BA10014432A88165C06D9DF8BB1047
:10389000014432A8C1651EE0BDF8B800B0F5827FD2
:1038A00019DBBDF8B800B0F5967F14DA206A401C29
:1038B0002062BDF8B8104A9808444A9032A8406E79
:1038C0009DF8BA10014432A84166806E9DF8BB1085
:1038D000014432A88166B81C18F800008DF8BC00BD
:1038E0002F9801F081F818B14E98401C4E902CE1B1
:1038F00030A92FA8FEF760FB9DF8C0004FF4784177
:1039000001EA00209DF8C1104FF4FC6202EAC101F7
:1039100008439DF8C21040EAD1003190319801125D
:1039200006AAB81C11543198C1B2F81C11542EA922
:1039300030A8FEF7B1F99DF8BB001E2812DC206804
:10394000401C2060BDF8B8103298084432909DF8B1
:10395000BA103398084433909DF8BB10349808444B
:103960003490F1E09DF8BA000A2815DC6068401C2C
:103970006060BDF8B81035980844359032A80069E9
:103980009DF8BA10014432A8016140699DF8BB104E
:10399000014432A84161D7E0BDF8B8000A2804DB31
:1039A000BDF8B800B0F5967F15DBA068401CA0609C
:1039B000BDF8B81038980844389032A8C0699DF80E
:1039C000BA10014432A8C161006A9DF8BB100144DD
:1039D00032A80162B8E0BDF8B8000A281CDBBDF8C7
:1039E000B800282818DAE068401CE060BDF8B8107C
:1039F0003B9808443B9032A8806A9DF8BA10014475
:103A000032A88162C06A9DF8BB10014432A8C1622D
:103A10009AE00000B4030020BDF8B800282819DBA4
:103A2000BDF8B800502815DA2069401C2061BDF8A7
:103A3000B8103E9808443E9032A8406B9DF8BA10EA
:103A4000014432A84163806B9DF8BB10014432A849
:103A5000816379E0BDF8B800502819DBBDF8B800E3
:103A6000962815DA6069401C6061BDF8B81041986D
:103A70000844419032A8006C9DF8BA10014432A865
:103A80000164406C9DF8BB10014432A841645BE0C6
:103A9000BDF8B800962819DBBDF8B800D22815DAB1
:103AA000A069401CA061BDF8B81044980844449037
:103AB00032A8C06C9DF8BA10014432A8C164006DF0
:103AC0009DF8BB10014432A801653DE0BDF8B80087
:103AD000D2281ADBBDF8B800B0F5827F15DAE069AC
:103AE000401CE061BDF8B81047980844479032A8E0
:103AF000806D9DF8BA10014432A88165C06D9DF8B3
:103B0000BB10014432A8C1651EE0BDF8B800B0F595
:103B1000827F19DBBDF8B800B0F5967F14DA206A11
:103B2000401C2062BDF8B8104A9808444A9032A858
:103B3000406E9DF8BA10014432A84166806E9DF82F
:103B4000BB10014432A8816600BF3F1DB7EB4B0F8D
:103B5000FFF682AD06A81FFA8BF2009050987830DD
:103B600081B202230020FDF7AEFE4FF42070A0EBDF
:103B70004A0080445098401C509052995098884276
:103B8000FFF666AD529901FB0BF000EBD0724E9937
:103B9000B1EB620F03DB002057B0BDE8F08F0025CA
:103BA00026E054F82500142803DA002044F8250004
:103BB0001DE000204F9016E005EB450032A901EB17
:103BC00080014F9851F8200054F8251090FBF1F136
:103BD00005EB450032AA02EB80024F9842F8201014
:103BE0004F98401C4F904F980328E5DB00BF6D1C99
:103BF000092DD6DB02252BE154F8250018B1681CED
:103C000054F8200000B922E105EB450132AA52F830
:103C10002120691C01EB410132AB53F82110501AED
:103C2000002801DB014600E0414205297DDC54F813
:103C30002510681C54F82000814277DB05EB450015
:103C400032A951F8200054F825104843691C01EBB3
:103C5000410132AA52F82120691C54F8211002FBBC
:103C6000010154F82520681C54F82000104491FBF1
:103C7000F0F005EB450132AA42F8210005EB4500C2
:103C800032A901EB8000406854F825104843691CB4
:103C900001EB410102EB81014A68691C54F82110D3
:103CA00002FB010154F82520681C54F82000104440
:103CB00091FBF0F005EB450132AA02EB810148606F
:103CC00005EB450032A901EB8000806854F825100F
:103CD0004843691C01EB410102EB81018A68691CC0
:103CE00054F8211002FB010154F82520681C54F8F7
:103CF0002000104491FBF0F005EB450132AA02EBE5
:103D0000810188600021681C00EB400042F820100F
:103D1000681C00EB400002EB80004160681C00EB77
:103D2000400002EB8000816001E08FE00CE054F87D
:103D30002510681C54F82000084444F82500002190
:103D4000681C44F8201081E005EB450032A951F8C9
:103D5000200054F825104843691C01EB410132AAA8
:103D600052F82120691C54F8211002FB010154F87B
:103D70002520681C54F82000104491FBF0F1681CC9
:103D800000EB400032AA42F8201005EB450032A9B2
:103D900001EB8000406854F825104843691C01EB92
:103DA000410102EB81014A68691C54F8211002FBB1
:103DB000010154F82520681C54F82000104491FBA0
:103DC000F0F1681C00EB400032AA02EB8000416079
:103DD00005EB450032A901EB8000806854F82510FE
:103DE0004843691C01EB410102EB81018A68691CAF
:103DF00054F8211002FB010154F82520681C54F8E6
:103E00002000104491FBF0F1681C00EB400032AA46
:103E100002EB80008160002005EB450142F82100A3
:103E200005EB450102EB8101486005EB450102EB22
:103E300081018860681C54F8200054F82510014462
:103E4000681C44F82010002044F8250000BF6D1CB9
:103E5000082DFFF6D1AE002505E054F825104D9849
:103E600008444D906D1C092DF7DB4D98FCF73AFC8A
:103E7000544A554BCDE90001FCF745FBCDE904015F
:103E80002068FCF72FFCCDE90201DDE90423FCF7F3
:103E900099FC01D20020206018203060359850280D
:103EA00002DA0320706001E019207060A06810B988
:103EB0000420B06022E03898B0F5AA7F02DC389880
:103EC0000A280ADA32A8C0693C2806DB32A8006A50
:103ED0003C2802DC0020B06010E03898B0F5AB7FE1
:103EE00003DC3898B0F5967F03DA32A8C069282839
:103EF00002DC0D20B06001E00420B060E06810B981
:103F00000520F06013E032A8C06A322802DC0520E8
:103F1000F0600CE032A8806A322806DC32A8C06A61
:103F2000322802DB0120F06001E00520F06032A8B9
:103F3000406B282806DC32A8806B462802DB102064
:103F4000306101E00620306132A8006C282806DCD0
:103F500032A8406C462802DB1220706101E0082084
:103F6000706132A8C06C282806DC32A8006D462893
:103F700002DB1420B06101E00A20B06132A8806D3C
:103F8000282806DC32A8C06D462802DB1520F06127
:103F900001E00B20F06132A8406E282806DC32A830
:103FA000806E462802DB1620306201E00C20306271
:103FB00000200823024631460090204601F049FCCB
:103FC0000120E9E59A9999999999B93F2DE9F14F1D
:103FD000B4B024212BA8FCF71CF94FF000080025F1
:103FE000AA46AB46002021906822984907A8FCF712
:103FF000F7F80020069022AA2BA93498FFF7F6FACA
:104000000690069818B91E2035B0BDE8F08F002440
:1040100004E02BA850F824008044641C092CF8DB31
:104020004046FCF75FFB4FF06632894BCDE900015B
:10403000FCF769FACDE904012B98FCF753FBCDE9B5
:104040000201DDE90423FCF7D5FB02D22298C0B2BD
:10405000DAE7002408E02BA850F82400322801DD1C
:104060006D1C00E002E0641C1A2CF4DB00BF022D82
:1040700048D12B9E2C9F06EB07084046FCF732FBED
:104080000022744BCDE90001FCF73DFACDE90401B3
:10409000F01BFCF727FBCDE90201DDE90423FCF767
:1040A000A9FB02D82298C0B2AEE74046FCF71AFB43
:1040B0004FF03332684BCDE90001FCF724FACDE92B
:1040C0000401F01BFCF70EFBCDE90201DDE904233E
:1040D000FCF790FB0FD807A9229851F8200007AAF7
:1040E000239952F82110884202DD2298C0B28BE752
:1040F0002398C0B288E7239AD1B2229AD0B2FEF7B1
:10410000F7FD81E7022D7CDD4FF00008042D00DD76
:104110000425002404E02BA850F824008044641CEB
:10412000AC42F8DB2B9EDDF8B0904046FCF7DAFAA3
:104130004FF03332494BCDE90001FCF7E4F9CDE90A
:104140000401A6EB0900FCF7CDFACDE90201DDE997
:104150000423FCF74FFB02D82298C0B254E7229800
:10416000192801D11B204FE7002422E022A911F8D1
:10417000240000F015FB20B12BA850F82400824445
:1041800016E022A911F8240000F0F3FA20B12BA8C0
:1041900050F8240083440BE022A911F8240000F019
:1041A000D7FA28B12BA850F8241021980844219060
:1041B000641CAC42DADB4046FCF794FA0022284B40
:1041C000CDE90001FCF79FF9CDE904015046FCF769
:1041D00089FACDE90201DDE90423FCF70BFB01D2EA
:1041E0001A2011E74046FCF77DFA00221C4BCDE96E
:1041F0000001FCF788F9CDE904015846FCF772FA92
:1042000000E021E0CDE90201DDE90423FCF7F2FA48
:1042100001D21B20F8E64046FCF764FA0022104B5E
:10422000CDE90001FCF76FF9CDE904012198FCF715
:1042300059FACDE90201DDE90423FCF7DBFA01D2EA
:104240001C20E1E61B20DFE61D20DDE65803010807
:104250006666E63F0000D03F3333C33F3333D33F7E
:104260000000E03F4161704701617047F0B50446CE
:1042700016460025002201F00F0501F0100707B1D6
:104280003543002018E0012787401F4097B122687E
:104290004FEA800C0F2707FA0CF7BA43870005FA9C
:1042A00007F73A43282901D1636102E0482900D188
:1042B00023612260471CB8B20828E4D308201CE020
:1042C000012787401F40B7B16268A0F108074FEA95
:1042D000870C0F2707FA0CF7BA43A0F10807BF00B5
:1042E00005FA07F73A43282901D1636102E048291A
:1042F00000D123616260471CB8B21028E0D3F0BD42
:1043000010B503460020DAB1022B04D11A4CE06B41
:104310000843E0632FE0032B04D1174C206C0843C3
:10432000206428E0042B04D1134C606C08436064C3
:1043300021E0052B1FD1104CA06C0843A0641AE0AB
:10434000022B04D10C4CE06B8843E06313E0032B99
:1043500004D1094C206C884320640CE0042B04D168
:10436000054C606C8843606405E0052B03D1024C6A
:10437000A06C8843A06410BD00000140F0B50A465F
:10438000002300240021002500F00046B6F1004F74
:1043900002D11D4EF16901E01B4E7168C0F3034567
:1043A00083B200F44016B6F5401F08D121F07061C9
:1043B000154E766826F07066134F7E6012E000F4AA
:1043C0008016B6F5801F06D1032606FA05F4A14330
:1043D00041F0706106E0460D360103FA06F6B1437E
:1043E00041F0706122B1460D360103FA06F6314301
:1043F00000F00046B6F1004F02D1034EF16101E03A
:10440000014E7160F0BD000000000140012904D19F
:10441000026842F48062026003E0026822F4806273
:10442000026070472DE9F05F04460E469346022075
:1044300000F0A4FF07462E48B7FBF0F8B8F13F0F95
:1044400001D34FF03F08D4F804A02AF03F0A4AEA0B
:10445000080AC4F804A02748864218D82448B7FBA5
:10446000F0F000F10109B9F13F0F02D33F202062C3
:1044700001E0C4F820907000B7FBF0F5042D00D2E5
:104480000425E069C5F30B010843E0612EE01A48FA
:1044900086422BD84FF4967008FB00F04FF47A71E7
:1044A000B0FBF1F0401C2062BBF1000F08D106EB1D
:1044B0004600B7FBF0F5E06920F48040E06109E0D8
:1044C00006EBC60000EB0610B7FBF0F5E06940F420
:1044D0008040E061C5F30B0008B945F00105E069D3
:1044E00040F40040E061E0692843E061BDE8F09FEE
:1044F00040420F00A0860100801A060001460869AC
:10450000C0B270470161704710B50446134820449B
:1045100030B1B0F5806F0CD0B0F5006F1BD111E059
:1045200040F2154001F002F840F2154000F0EEFFB5
:1045300012E040F2164000F0F9FF40F2164000F0A1
:10454000E5FF09E041F6176000F0F0FF41F6176063
:1045500000F0DCFF00E000BF00BF10BD00ACFFBFFB
:10456000016841F0010101607047022902D14269EE
:10457000826902E042698A434261704730B502466F
:104580000023002001F00043B3F1004F07D19469EC
:104590008DB22C400CB1012008E0002006E05469E7
:1045A0008DB22C400CB1012000E0002030BD12F192
:1045B000020F02D121F0010101E041F0010101618E
:1045C000704730B50C460021016821F002012143FB
:1045D000016042EA0305856030BD016841F48071E5
:1045E00001607047016841F400710160704700008C
:1045F0002DE9F04F91B00646894600200490002432
:1046000096E0002542E004EB840209EB82036A1C79
:1046100053F8221004EB840206EB82036A1C53F861
:104620002200FBF753FE8246FCF7B9F821F0004167
:104630000746424A424BFCF7DDF803D2002011B096
:10464000BDE8F08F04EB840209EB82036A1C53F887
:10465000221004EB840206EB82036A1C53F822004A
:10466000FBF734FE0190FCF79AF821F0004B8246EC
:104670000498FCF794F852465B46CDE90201FBF73B
:104680009BFE0746FCF7CEF804906D1C042DBADBA8
:104690000498FCF784F807462A4A2B4BFCF792F85B
:1046A00002D20020049042E004EB840259F8221068
:1046B00004EB840256F82200FBF708FE8246FCF762
:1046C0006EF821F0004107460022204BFCF792F8DB
:1046D00001D20020B3E704EB840006EB80031B1D2E
:1046E0000FCB05AF0FC7032300220DA905A801F0CA
:1046F00069F804EB840009EB80031B1D0FCB05AFA9
:104700000FC70323002209A905A801F05BF80025C3
:104710000AE00DA850F8250009A951F82510884293
:1047200001D000208BE76D1C042DF2DB00BF641C60
:10473000092CFFF666AF012081E700009A9999994C
:104740009999C93F7B14AE47E17AB43F00002440F9
:104750000146092909D00A2907D00B2905D01329B8
:1047600003D0142901D0152901D101207047002060
:10477000FCE7014603290FD007290DD008290BD0EB
:104780000C2909D0182907D0112905D0122903D0E6
:10479000162901D0192901D1012070470020FCE71A
:1047A000014699B1012911D002290FD004290DD059
:1047B00005290BD0062909D00D2907D00E2905D0CF
:1047C0000F2903D0102901D0172901D101207047EA
:1047D0000020FCE72DE9F04F97B081468A46614AF8
:1047E000D2E901311068D268CDE9133115921290E7
:1047F0005C4B1033D3E90020D3E902130FAC0BC498
:104800000E92002430E0621C5AF8221059F822005F
:10481000FBF75CFD0746FBF7C2FF21F000410546B0
:104820000022514BFBF7E6FF03D2002017B0BDE892
:10483000F08F621C5AF8221059F82200FBF746FD4F
:104840000190FBF7ACFF21F0004807465846FBF704
:10485000A6FF3A464346CDE90201FBF7ADFD05460A
:10486000FBF7E0FF8346641C042CCCDB5846FBF7C7
:1048700096FF05463D4A3E4BFBF7A4FF01D20120BF
:10488000D4E7DAF81410D9F81400FBF71FFD074637
:10489000FBF785FF21F0004105460022354BFBF771
:1048A000A9FF01D20020C1E7DAF80010D9F8000012
:1048B000FBF70CFD0746FBF772FF21F000410546B0
:1048C00000222C4BFBF796FF01D20020AEE7DAF86E
:1048D0001410D9F81400FBF7F9FC0746FBF75FFF4B
:1048E00021F0004105460022234BFBF76BFF12D855
:1048F000DAF80010D9F80000FBF7E8FC0746FBF7F0
:104900004EFF21F00041054600221B4BFBF75AFFEA
:1049100001D801208AE71422494609A8FBF760FC68
:104920001422514604A8FBF75BFC0423012212A9C0
:1049300009A800F047FF042301220EA904A800F0F3
:1049400041FF00240AE012A850F824000EA951F8F3
:104950002410884201D0002068E7641C042CF2DB9C
:10496000012063E7C00301080000D03F9A9999999C
:104970009999B93F000034400000144010B5044636
:10498000094804630146094801F0A4FC074880383F
:1049900001F099FC054801F096FC012001F0ECFCC7
:1049A00001F080FC10BD0000F05B02208068014037
:1049B00010B5002405210948FDF7FEFFFDF7F2FEC2
:1049C00000BF06E0064951F82400064A42F82400D8
:1049D000641CB4F5FF4FF5D310BD00000004024085
:1049E000000004C0000008C001B59DF8000038B9FF
:1049F0009DF8010020B99DF8020008B9012008BD0A
:104A00009DF80000FF2809D19DF80100FF2805D17D
:104A10009DF80200FF2801D10120F0E70020EEE719
:104A20001CB501F041F900F0AFF83A48FEF7E2F8A2
:104A3000FCF7A4FF08213848FFF716FC4FF6FF707B
:104A4000FCF776FF35A04FF6FF7300221146009069
:104A50001046FCF70FFE35A04FF6FF7300221E2113
:104A600000901046FCF706FE344940F2AF4001F0DA
:104A700043F90120FEF704F9FCF7E6F9FDF778FFAA
:104A800048B92FA04FF6FF7300223C21009010463A
:104A9000FCF7F0FD08E02FA04FF6FF7300225A212B
:104AA00000901046FCF7E6FD01A8FDF753FF9B2898
:104AB00008D12EA04FF6FF7300223C210090104633
:104AC000FCF7D8FD05212E48FDF786FF0120FDF7F4
:104AD00025FFFDF7FFFE1CE02A480078012808D1D9
:104AE0000F212520FDF7DAFDFDF766FE00202549A0
:104AF000087000F00BFA00F01DFF0120FEF7ECF843
:104B0000C820FDF743FF0120FEF7DAF86420FDF727
:104B10003DFFE1E700380140001001404F563736B5
:104B20003730205445535421000000004F5637368B
:104B3000373020696E6974696E6700003F4B4C0026
:104B400043616D657261204861766520496E6974C4
:104B50002E2E00004F563736373020496E697420AC
:104B60006661696C7321212E0000000043616D6550
:104B7000726120496E6974204F4B2E2E0000000098
:104B8000000402401400002010B54FF4C06000F093
:104B900053F8022200214E2000F006F801221146AF
:104BA000362000F001F810BDF0B50B4600210024BE
:104BB00000251F4E366806F4E066B6F5A06F13D0E8
:104BC00006DCB6F5407F15D0B6F5806F15D10EE046
:104BD000B6F5C06F05D0B6F5E06F0ED10024042500
:104BE0000CE00124032509E00224022506E0032449
:104BF000012503E00424002500E000BF00BFC4F14C
:104C0000040603FA06F1C5F104070F26FE4016401C
:104C100031430901074E315400F01F070126BE4001
:104C20004711BF0007F1E027C7F80061F0BD0000A1
:104C30000CED00E000E400E002490143024A11608B
:104C4000704700000000FA050CED00E070B500258B
:104C50002448FEF78FF80446D4B923480068401C66
:104C60002149086008460068012802D103201F4935
:104C700008701E480078032810D11B4800680228DD
:104C80000CD300201849086004201849087070BD32
:104C90000020154908600220144908701449114881
:104CA000FFF7A6FC0546012D11D112480068401CF3
:104CB000104908600846006802280BDB00200860E5
:104CC00003200D49087004200C490870DFE700201C
:104CD00008490860B42203490548FBF781FA00BF80
:104CE000D5E70000785C0220A00300209C03002090
:104CF0002C5D0220AC000020A5000020AC030020A9
:104D000070B500252248FEF735F80446D4B921488D
:104D10000068401C1F49086008460068012802D14D
:104D200003201D4908701C480078032810D1194839
:104D3000006802280CD30020164908600420164998
:104D4000087070BD002013490860022012490870E5
:104D500012490F48FFF74CFC0546012D0ED11048B3
:104D60000068401C0E49086008460068032808DBFC
:104D70000020086001200B490870E2E70020084984
:104D80000860B42202490548FBF72AFA00BFD8E7B9
:104D9000785C0220A00300209C0300202C5D0220F0
:104DA000AC000020A500002070B500251E48FDF7CE
:104DB000E1FF0446D4B91D480068401C1B49086047
:104DC00008460068012802D10320194908701848D4
:104DD0000078032810D11548006802280CD3002061
:104DE0001249086004201249087070BD00200F4964
:104DF000086002200E4908700E490B48FFF7F8FBC7
:104E000005464DB900200C49086002200B49087086
:104E100005200B490870E8E7B42203490548FBF771
:104E2000DFF900BFE1E70000785C0220A00300206A
:104E30009C0300202C5D0220AC000020A500002077
:104E4000AC03002070B500252948FDF793FF044608
:104E5000D4B928480068401C264908600846006804
:104E6000012802D103202449087023480078032830
:104E700010D12048006802280CD300201D4908608A
:104E800004201D49087070BD00201A4908600220E6
:104E90001949087019491648FFF7AAFB0546012D64
:104EA0000ED117480068401C154908600846006884
:104EB000022816DB00200860012012490870E2E792
:104EC0000F480068002809DD00200D490860022015
:104ED0000C49087005200C490870D4E700200849E7
:104EE0000860B42202490548FBF77AF900BFCAE717
:104EF000785C0220A00300209C0300202C5D02208F
:104F0000AC000020A5000020AC030020074800787A
:104F1000012802D1072006490870044800780428B7
:104F200002D1082002490870704700009C0300204D
:104F3000AC03002010B540F2026000F0D7FA40F256
:104F4000036000F0D3FA4FF4C06000F0CFFA012301
:104F5000032218212948FFF789F901212748FFF783
:104F600081F90223032218212448FFF77FF9022147
:104F70002248FFF777F90423032218211F48FFF77F
:104F800075F904211D48FFF76DF908230322182144
:104F90001A48FFF76BF908211848FFF763F9012257
:104FA00004210520FFF7ACF9202303221821134820
:104FB000FFF75CF920211148FFF754F98023032201
:104FC00018210E48FFF752F980210C48FFF74AF9E3
:104FD0000123032218210A48FFF748F90121084854
:104FE000FFF740F90223032218210548FFF73EF995
:104FF00002210348FFF736F910BD00000008014008
:10500000000C014000B589B04FF4E06000F06EFA8A
:105010004FF0804001F000F87720ADF80400002048
:10502000ADF80600ADF808004FF47A700390002048
:10503000ADF810008DF8120001A94FF0804001F08A
:10504000B3F80020ADF81A000120059005AA002150
:10505000800700F07DFE002211464FF0804000F0F6
:105060009AFF602200214FF0804000F067FF00228D
:1050700011464FF0804000F0A1FF4FF0804000F05B
:1050800061FE4FF0804001F089F809B000BD0000DA
:1050900000B589B040F2017000F028FA2F4800F006
:1050A000BBFF7720ADF804000020ADF80600ADF896
:1050B00008004FF47A7003900020ADF810008DF8CE
:1050C000120001A9254801F06FF80020ADF81A0080
:1050D0000120059005AA0121204800F039FE05AA0B
:1050E00002211E4800F034FE05AA03211B4800F0EF
:1050F0002FFE00220121194800F04DFF60220121FE
:10510000164800F01BFF00220121144800F056FF52
:1051100000220221114800F03EFF602202210F48C8
:1051200000F00CFF002202210C4800F047FF002293
:1051300003210A4800F02FFF60220321074800F0F6
:10514000FDFE00220321054800F038FF034800F06F
:10515000F9FD024801F022F809B000BD000400404A
:1051600000B589B040F2037000F0C0F9394800F092
:1051700053FF7720ADF804000020ADF80600ADF82D
:1051800008004FF47A7003900020ADF810008DF8FD
:10519000120001A92F4801F007F80020ADF81A000D
:1051A0000120059005AA00212A4800F0D1FD05AA9A
:1051B0000121284800F0CCFD05AA0221254800F075
:1051C000C7FD05AA0321234800F0C2FD00221146B5
:1051D000204800F0E0FE602200211E4800F0AEFEF4
:1051E000002211461B4800F0E9FE00220121194867
:1051F00000F0D1FE60220121164800F09FFE00223F
:105200000121144800F0DAFE00220221114800F0CA
:10521000C2FE602202210F4800F090FE002202210F
:105220000C4800F0CBFE002203210A4800F0B3FE38
:1052300060220321074800F081FE00220321054877
:1052400000F0BCFE034800F07DFD024800F0A6FF20
:1052500009B000BD000C00402DE9F04704460D46A2
:1052600017461E46DDE90889224600214FF080409E
:1052700000F091FE2A4602210C4800F08CFE3A46CE
:1052800000210B4800F087FE32460121084800F05B
:1052900082FE42460221064800F07DFE4A46032176
:1052A000034800F078FEBDE8F087000000040040ED
:1052B000000C004010B5FFF753FF6420FDF766FBBC
:1052C00000221146204800F066FE6420FDF75EFBD8
:1052D000002201211C4800F05EFE6420FDF756FB11
:1052E00000220221184800F056FE6420FDF74EFB14
:1052F00000220321144800F04EFEFFF783FE6420D5
:10530000FDF744FB002211464FF0804000F043FEC1
:10531000FFF7BEFE6420FDF739FB002201210B4898
:1053200000F039FE6420FDF731FB0022022107481E
:1053300000F031FE6420FDF729FB00220321034821
:1053400000F029FE10BD0000000C004000040040E9
:1053500010B50246084B586820F0706040EA02031E
:10536000054C6360044B8033186820F03F0040EA2E
:105370000103C4F8803010BD001002402DE9F14F48
:105380008DB000200B9051A090E8004CC068CDE992
:1053900005BECDF810A007900FF2341ADAE9000A22
:1053A000CDE9020A0FF2281ADAE9000ACDE9000A6B
:1053B0004A484068C0F381000C900C9820B1012845
:1053C00004D002284ED103E045494DE045494BE069
:1053D0004248406800F48039B9F5803F26D1414BFE
:1053E0003E48C06A00F480300A900A98B0F5803FC9
:1053F00012D13A48C06AC0F30310401C08903748E5
:10540000C06AC0F30320871C112F00D1142708980D
:10541000B3FBF0F000FB07F33048C06A00F00F0068
:10542000401C09900998B3FBF0F300E02E4B2B4889
:105430004068C0F383422948406800F0005008B13A
:1054400042F010020D2A05D103EB4300400000EBAF
:10545000530106E00F2A01D2921C00E0521C03FB0C
:1054600002F101E01E4900BF00BF1C484068C0F3C4
:10547000031504A8465D21FA06F418484068C0F3F5
:10548000022502A8465D24FA06FC14484068C0F3D1
:10549000C2251DF8056024FA06F80D9830B10128E0
:1054A00006D0022806D003280AD106E00B9108E0B6
:1054B0000B9406E0CDF82CC003E0CDF82C8000E082
:1054C00000BF00BF0B980EB0BDE8F08F00000000D9
:1054D0000000000001020304060708090010024052
:1054E00000127A0040787D0100093D00064A02EB77
:1054F0009011096800F01F0301229A401143024BEA
:1055000003EB90121160704700100240064A02EB54
:105510009011096800F01F0301229A409143024B49
:1055200003EB90121160704700100240064A02EB34
:105530009011096800F01F0301229A401143024BA9
:1055400003EB9012116070470010024010B540F25A
:105550000360FFF7CBFF40F21670FFF7C7FF4FF471
:10556000C060FFF7C3FF4FF4806302221C21104884
:10557000FEF77CFE4FF4006302221C210C48FEF76C
:1055800075FE0C48FEF7C0FF00220B490948FEF7E4
:1055900049FFFE23002211460648FFF712F805488E
:1055A000FEF7DEFF01210348FEF730FF10BD0000CB
:1055B000000C014000580040A086010070B5DDE9F4
:1055C0000445044E30607160B260F360346175610F
:1055D00070BD0000E05D022000EB4001164A52F869
:1055E0003110164A116000EB4001134A02EBC10171
:1055F0004968124A516000EB40010F4A02EBC101B9
:1056000089680E4A916000EB40010B4A02EBC10130
:10561000C9680A4AD16000EB4001074A02EBC101A8
:105620000969064A116100EB4001034A02EBC1011E
:105630004969024A51617047C8000020E05D0220BC
:105640002DE9F04104460D4604EB4401324A52F87C
:105650003100FBF742F807462946FAF73DFE0646B9
:10566000FBF76AF82D49086004EB44012A4A02EB73
:10567000C1014868FBF731F807462946FAF72CFEC6
:105680000646FBF759F82549486004EB4401224AD5
:1056900002EBC1018868FBF720F807462946FAF7B4
:1056A0001BFE0646FBF748F81C49886004EB4401E2
:1056B000194A02EBC101C868FBF70FF807462946F3
:1056C000FAF70AFE0646FBF737F81449C86004EB00
:1056D0004401114A02EBC1010869FAF7FEFF0746CF
:1056E0002946FAF7F9FD0646FBF726F80B4908614B
:1056F00004EB4401084A02EBC1014869FAF7EDFFE7
:1057000007462946FAF7E8FD0646FBF715F8034970
:105710004861BDE8F0810000C8000020E05D022083
:105720002DE9F047D4B04FF0F0084FF4A079244EA3
:10573000002540E000242DE0002000EB4400305C18
:105740008DF80800012000EB4400305C8DF8090062
:10575000032000EB4400305C8DF80A0003A902A886
:10576000FCF72AFC9DF80C004FF4784101EA002078
:105770009DF80D104FF4FC6202EAC10108439DF848
:105780000E1040EAD107381204A9085504AA601C7B
:105790001754A41C4C45CFDB04A8AA46009005EB87
:1057A000DA70C0F34F010223A0220020FCF78BF82F
:1057B00006F5A066AD1C4545BCDB54B0BDE8F087DE
:1057C000B40300202DE9F84F064688461546994651
:1057D0004FF0FF372C4603E0601B48F82040641C64
:1057E0004C45F9DD2C4630E0274604F1010A0DE076
:1057F00056F8271056F82A00FAF768FD00210090A5
:10580000FBF736F800D257460AF1010ACA45EFDD28
:10581000A74219D056F824B056F8270046F82400BD
:1058200046F827B0611B58F82100FAF74DFF834670
:10583000781B58F82000611B48F821005846FAF7F9
:1058400062FF791B48F82100641C4C45CCDDBDE8A3
:10585000F88F2DE9F04304460D46DDF81CC04FF0EB
:10586000FF31BCF1000F08D0104604E0A0EB0208A5
:1058700045F82800401C9842F8DD10462AE0014611
:10588000461C0AE054F8268054F82190A8EB090839
:10589000B8F1000F00DD3146761C9E42F2DD8142F8
:1058A00017D054F8207054F8218044F8208044F830
:1058B0002170A0EB020855F82870A1EB020855F8FA
:1058C0002880A0EB020945F82980A1EB020845F8E1
:1058D0002870401C9842D2DDBDE8F083016841F099
:1058E0004001016070470146C86880B27047C160DE
:1058F000704702469068084008B1012070470020B8
:10590000FCE702460020106800F441500B68184381
:105910004B6818438B681843CB6818430B691843CE
:105920004B6918438B6918431060D36923F40063F3
:10593000D361704710B51C4800780A2830D2DFE8E0
:1059400000F0050B11151B212D272A2EFBF7D4F88B
:1059500001201549087024E0FBF71CF909201249C1
:1059600008701EE00920104908701AE0FBF712F9D0
:1059700009200D49087014E0FBF73CF909200A4999
:1059800008700EE0FBF7DEF909200749087008E00F
:10599000FBF77EF805E0FBF729FA02E001E000E002
:1059A00000BF00BF10BD0000AC0300202DE9F04F88
:1059B00091B081460C4615461E46DDE91AAB3220F1
:1059C0000F907D480E901C99A1EB0900FAF77CFE20
:1059D00003900E99FAF7B2FC0D901D99081BFAF787
:1059E00073FE03900E99FAF7A9FC0C901E99481BC0
:1059F000FAF76AFE03900E99FAF7A0FC0B901F9934
:105A0000881BFAF761FE03900E99FAF797FC0A904B
:105A10002099A1EB0A00FAF757FE03900E99FAF7C6
:105A20008DFC09902199A1EB0B00FAF74DFE039034
:105A30000E99FAF783FC089000201090A7E04846E2
:105A4000FAF742FE02901098FAF73EFE00900D9988
:105A5000FAF742FC01900299FAF7E6FB0390FAF795
:105A600052FE0746B7F5FA7F01DD4FF4FA77002FB3
:105A700000DA00272046FAF727FE02901098FAF77E
:105A800023FE00900C99FAF727FC01900299FAF78F
:105A9000CBFB0390FAF737FE8046B8F5FA7F01DDBD
:105AA0004FF4FA78B8F1000F01DA4FF000082846F9
:105AB000FAF70AFE02901098FAF706FE00900B998A
:105AC000FAF70AFC01900299FAF7AEFB0390FAF795
:105AD0001AFE07900798002801DA00200790304648
